:020000040800F2
:1000000000000220DD020008D90200088D2C000843
:10001000D9020008D9020008D90200080000000037
:10002000000000000000000000000000D9020008ED
:10003000D902000800000000D90200087D2C000849
:10004000D9020008D9020008D9020008D902000824
:10005000D9020008D9020008D9020008D902000814
:10006000D9020008D9020008D9020008D5280008E2
:10007000E1280008E11D0008ED280008F928000823
:10008000D9020008599A0008D9020008D9020008CC
:10009000D9020008D9020008D9020008D9020008D4
:1000A000D9020008D9020008D9020008D9020008C4
:1000B000D9020008D9020008D90200088D9A000868
:1000C000D9020008999A0008D9020008D90200084C
:1000D000D9020008D9020008D9020008D902000894
:1000E000D9020008D902000800000000D902000867
:1000F000D9020008D9020008D9020008D902000874
:10010000D9020008D9020008D9020008D902000863
:10011000D9020008D9020008D9020008D902000853
:10012000D9020008D9020008D9020008D902000843
:10013000D9020008D9020008D9020008D902000833
:1001400000000000000000000000000000000000AF
:10015000D9020008D9020008D9020008D902000813
:10016000A59A0008D9020008D1180008DD18000877
:10017000D9020008E9180008D9020008D9020008CD
:10018000D9020008D9020008D9020008D9020008E3
:10019000D9020008D9020008D9020008D9020008D3
:1001A000D9020008D9020008D9020008D9020008C3
:1001B0001D260008D9020008D9020008D90200084B
:1001C000D9020008D9020008F51800080119000832
:1001D000D90200080D190008D9020008D902000848
:1001E000D9020008D9020008D9020008D902000883
:1001F000D9020008D9020008D9020008D902000873
:10020000D9020008D9020008D9020008D902000862
:10021000D9020008D9020008D9020008D902000852
:10022000D9020008D9020008D90200080000000025
:10023000D9020008D902000800000000D902000815
:10024000D9020008D9020008D9020008D902000822
:10025000D9020008D9020008D9020008D902000812
:10026000D9020008D9020008D9020008D902000802
:10027000D9020008D9020008D902000800000000D5
:10028000D9020008D9020008D902000800000000C5
:0802900000000000D902000883
:1002980010B5054C237833B9044B13B10448AFF3B8
:1002A80000800123237010BDF0000024000000002E
:1002B80070D2000808B5034B1BB103490348AFF3DC
:1002C800008008BD00000000F400002470D200087F
:1002D800FEE700BF0B480C4A904203D0121A0B49A4
:1002E8000BF0B6F80A480B4A904203D0121A0021C4
:1002F8000BF0BCF802F030FE0BF086F800F018F9AD
:10030800FEE700BF00000024EC0000248CD20008A7
:10031800F0000024F8170024704700BF704700BFA2
:10032800704700BF704700BF704700BF704700BFED
:10033800002A00F09F80013A2DE9F04F530800266B
:100348004D4F88464D4CDFF85CB12DED068B83B0E0
:10035800019300214A4801F0E3FC4A4887ED000A6E
:1003680001F08CFA474B5B79A3F1FF097F2BB9FAAF
:1003780089F94FEA59196CD0434B1B68434A4FF02F
:10038800000A9FED439A02EB83034248F0EE498A44
:10039800414D93ED000A0AF0E7F9D7ED00AAB0EE57
:1003A80040AA09E00AF1010AE9EE808AA8EE009A5B
:1003B8002C35BAF1080F34D007EE90AAB0EE4A0AED
:1003C8002846B8EEE77ADFED357AA7EE270A8DEDF5
:1003D800000A0AF071F99DED000A28460AF09EF914
:1003E800B0EE6A0A28460AF093F9F4EE007A94ED22
:1003F800007A2846F0EE679AE7EE279AE7EE677AE2
:10040800B0EE678A09F0F6FF1AF0010FCAD00AF1B8
:10041800010AE8EE008AA9EE809A2C35BAF1080F95
:10042800CAD149461E4809F03BFFDBED007A019A24
:1004380008F1080820EE270A731CB24260EE288AE9
:1004480020EE090A48ED028A08ED010A0DD01E4681
:100458007FE70D490B6801335A4203F0070302F0A6
:10046800070258BF53420B6088E703B0BDEC068B08
:10047800BDE8F08F704700BF040000242C00002462
:10048800AC0100247C0300248C0300240800002411
:100498000000000030030024D0010024CDCC4C3EE5
:1004A8004C03002428000024704700BF38B5104CC6
:1004B8002DED028BB0EE408A04F5B0752046B0EE03
:1004C800480A09F045FF20469FED0A0A0AF020F97C
:1004D8002046B6EE000A0AF0FFF820462C34012127
:1004E8000AF01AF9AC42E9D1BDEC028B38BD00BF65
:1004F800D00100240000000010B50F2086B000F0E5
:10050800FBF8034601A8094CADF80030009901F04A
:10051800FFF90423012220460DEB030101F006FA3E
:10052800204601F0E7FB06B010BD00BFAC01002477
:1005380010B52748274C2DED028B82B000F0B6F895
:100548000021234800F054F93021214800F0F6F842
:100558001F4800F0EFF80120B0EE408A00F0CCF818
:1005680003469FED1D0A1D48ADF80430019901F0BE
:1005780067F9FFF7C1FFB0EE480AFFF797FF302190
:10058800B0EE480A164809F09DFDDFED160AB6EEF2
:10059800000A134809F006FEB2EE050A104809F0F1
:1005A80057FE1148B0EE480ADFED100A0AF0CAF803
:1005B8000F49074800F0BAF800210E4801F0B0FBD7
:1005C8006421034884ED000A00F0ACF8F4E700BFAA
:1005D800940100240400002400007A447C030024D1
:1005E8004C0300240000000030030024CDCC4C3D17
:1005F80039030008AC01002438B51D4C00201D4902
:10060800224605460AF0E8F81B4822461B49456180
:1006180005620AF0E1F82246194928460AF0DCF892
:100628002246184918480AF0D7F8224615491748AB
:100638000AF0D2F816480023164922468585036039
:100648004360C360C36103624362816001614161C9
:10065800816111490AF0C0F82246104910480AF091
:10066800BBF822460F491048BDE838400AF0B4B834
:100678000000002435030008940100242503000825
:10068800B10400082D0300080C01002450010024C7
:100698004C030024000080BF290300083103000830
:1006A80030030024210300087C0300240F4A01239F
:1006B8000F494FF0060C80F82730816040F2027134
:1006C80080F810C0A0F8251080F82B3010B4094C21
:1006D800C0E9004202F181725DF8044B0532C26044
:1006E80040F60662A0F82920704700BF01050805FA
:1006F80009050705000705001F2882B009D8084B1F
:1007080003EB400213F81030507843EA002002B09F
:10071800704701230C2043EA002002B0704700BF55
:1007280094B40008084602F0AFBA00BF143001F0D4
:1007380051B800BF143001F049B800BF38B500F116
:10074800140504462DED028B284601F031F82846A1
:1007580001F03CF82846B0EE408A01F025F8D0EDCB
:10076800007AF8EE677A88EE277ABDEC028B84ED82
:100778000E7A38BD0000000030B5032491B0012581
:10078800194900234FF44172089106A9ADF82420B5
:1007980002939FED137BCDE90A45144D044602A848
:1007A8008DED0C7B8DED0E7BCDE9063502F01CF945
:1007B80040F601333025ADF80430019800F056F8C2
:1007C80003214FF07E53029A04F114000593CDE9FA
:1007D800035103A900F0B6FF11B030BDAFF300809C
:1007E80000000000010000000405040604020404DF
:1007F80030B504462DED028B83B089B3012240F257
:1008080001130092ADF80430694604F1300002F09B
:1008180007FB204600F04CF8E01C01F085FC04F1D1
:10082800250001F085FB04F1140504F1290001F00D
:100838007FFB2046FFF7A0FF284600F0C7FF2846A9
:10084800B0EE408A00F0B0FFD0ED007AF8EE677A9B
:1008580088EE277A84ED0E7A03B0BDEC028B30BDAA
:1008680040F201130091ADF80430CDE710B584B023
:1008780003460124ADF8040003A8ADF80C30ADF828
:100888000E4001F055FB214603A801F03BFC204631
:1008980002F0FAF9002103A801F034FC204602F026
:1008A800F3F9214603A801F02DFC04B010BD00BFE8
:1008B800F0B53F4C8BB0A06303781BB100252846E8
:1008C8000BB0F0BD0022079301233A49201D616057
:1008D8000321C4E902230822202306910A21C4E93E
:1008E800042340224FF4C073089102A9C4E90623E7
:1008F80000224FF40063C4E908234FF48052002318
:10090800C4E90A2302220723CDE90223042208238B
:10091800CDE9042307F0B2FF0546002844D110238F
:1009280001220126002702A90190201DCDE90223FA
:100938004FF48052CDE9046707F0CAFF642002F043
:100948008FFC02A94FF48052201DCDE904670226CE
:100958001027CDE9026707F0BBFF0322102302A985
:10096800201DCDE9022300230422CDE904234FF4FE
:10097800805207F0ADFF40F23223042202A901930E
:100988001023201DCDE90223019A012305924FF47B
:100998008052049307F09CFF40F60601201D07F0E3
:1009A800B7FF28460BB0F0BD012528460BB0F0BDB7
:1009B80098030024404100526A4A00232DE9F0437D
:1009C80015688FB00A9315B10FB0BDE8F083664B78
:1009D80001210C244FF0030811600026D3F8D4201D
:1009E8000327624842F48052DFF89891C3F8D42074
:1009F800D3F8D42002F480520092009AD3F8E02071
:100A080042F01002C3F8E020D3F8E02002F0100210
:100A18000192019AD3F8E02042F04002C3F8E020A6
:100A2800D3F8E02002F040020292029AD3F8E020C4
:100A380042F00802C3F8E020D3F8E02002F00802F0
:100A48000392039AD3F8E02042F48072C3F8E020BE
:100A5800D3F8E02002F480720492049AD3F8E020DC
:100A680042F08002C3F8E020D3F8E02002F08002D0
:100A78000592059AD3F8E02042F02002C3F8E0205E
:100A8800D3F8E02002F020020692069AD3F8E0207C
:100A980042F00402C3F8E0204FF68372D3F8E03046
:100AA8000C9403F00403CDF82C80079302230799D4
:100AB80008A9CDE9082304F0BFF948F23712022348
:100AC80008A92B480C94CDE90823CDE90A6704F05E
:100AD800B3F94CF20372022308A926480C94CDE915
:100AE8000823CDE90A6704F0A7F940F2FF62022360
:100AF80008A921480C94CDE90823CDE90A6704F038
:100B08009BF94FF60C72022308A91C480C94CDE9F6
:100B18000823CDE90A6704F08FF94FF63F02022354
:100B280008A917480C94CDE90823CDE90A6704F011
:100B380083F9D9F83800013002F018FBD9F83830B9
:100B48000646581C02F01AFB0223089008A93046F2
:100B58000A950993CDE90B8404F06EF90FB0BDE84E
:100B6800F08300BF9003002400440258001002588C
:100B780000180258000C025800200258001C0258A5
:100B880000140258980300242DE9F04FDFF8108470
:100B980006460D46144608F114002DED028B89B067
:100BA80000AF02F019F8D8F8143073B3D8F8183039
:100BB800D8F80490002B43690BBF4FF0080A4FF098
:100BC800100A4FF0020B4FF0040BB9F1000F2AD0B6
:100BD800A200EA46012B02F1070222F00702ADEB60
:100BE800020D6846ADEB020D694600F03F81022B0D
:100BF80000F0D680002B6FD02246C847D546243750
:100C0800BD46BDEC028BBDE8F08FD8F81830002B3C
:100C1800F5D0D8F804904FF0080A4FF0020B43695A
:100C2800B9F1000FD4D1FB61D8F80030BB61002BBB
:100C3800E5D0D54802F018F86B46BBF1020F786191
:100C480008EE103AFB6900F083816A465146A2EB30
:100C5800C40295466200EA46B2FBFBF2AAEBC40066
:100C680085460AEB8200EE46F861ADEB010DF869A6
:100C78000EEB820CC7F810C0EC46ADEB010D00EB93
:100C88008201CCF80400CCF8081001EB8201386925
:100C9800E946CCF80C1000EB8201CCF800A001EB7F
:100CA8008202C9E900E0C9E90212012B00F064835D
:100CB800022B00F06C82002B00F08081620849460C
:100CC8006046BB69984718EE103A24379D46BD46E2
:100CD800BDEC028BBDE8F08F002C8DD01A46D8ED04
:100CE8000B6A9FEDB27A8446331D36F922E00CF187
:100CF800080C07EE90EA33F922E00232F8EEE77AC0
:100D0800944267EE877A67EEA67A4CED027A07EE90
:100D180090EAF8EEE77A67EE877A67EEA67A4CED06
:100D2800017AE2D8F9612246C847984ED8ED046A9C
:100D38000020F9692B1D9FED9E7A9FED9E6ADFEDDD
:100D48009E5A22E0F4EEC67AF1EE10FAC0F2C88498
:100D580047F6FE72D1ED017A45F8202066EEA77AB3
:100D6800F4EEC77AF1EE10FA40F2F080F4EEC67AAB
:100D7800F1EE10FAC0F2D58447F6FE7243F820204F
:100D88000230083184427FF639AFD1ED007A66EE41
:100D9800A77AF4EEC77AF1EE10FAD3D83246D9E73B
:100DA800002C3FF429AFD8ED0B6A84469FED787A82
:100DB8000022331D8E4656F822100CF1080C07EE5F
:100DC800901A53F822100232F8EEE77A944267EE4E
:100DD800877A67EEA67A4CED027A07EE901AF8EE5B
:100DE800E77A67EE877A67EEA67A4CED017AE2D861
:100DF80071462246C7F81CE0C847664ED8ED046A1B
:100E08000020F9692B1D9FED6A7A9FED6A6ADFF869
:100E180094C120E0F4EEC67AF1EE10FAC0F27984BB
:100E28003246D1ED017A45F8202066EEA77AF4EE35
:100E3800C77AF1EE10FA40F28780F4EEC67AF1EE46
:100E480010FAC0F25E84324643F82020023008319E
:100E580084427FF6D3AED1ED007A66EEA77AF4EE3F
:100E6800C77AF1EE10FAD5D86246DAE7002C3FF4DB
:100E7800C3AED8ED0B6A86469FED477A4FF0000C5B
:100E8800331D56F82C200EF1080E82F40002A2F54C
:100E9800000207EE902A53F82C200CF1020CF8EE11
:100EA800E77A82F400026445A2F5000267EE877AC9
:100EB80067EEA67A4EED027A07EE902AF8EEE77A08
:100EC80067EE877A67EEA67A4EED017AD9D8F9618E
:100ED8002246C847314ED8ED046A0020F9692B1D17
:100EE8009FED337A9FED336ADFF8BCC01FE0F4EE64
:100EF800C67AF1EE10FAC0F2FC833246D1ED017ADF
:100F080045F8202066EEA77AF4EEC77AF1EE10FADB
:100F180018D9F4EEC67AF1EE10FAC0F2DA83324646
:100F280043F820200230083184427FF667AED1EDC5
:100F3800007A66EEA77AF4EEC77AF1EE10FAD6D800
:100F48006246DBE76246EBE762467DE7324615E735
:100F5800A100D6466208073121F00701ADEB010D6B
:100F6800EA46ADEB010D6946ADEB0E0D0AEB8200CA
:100F7800EC46ADEB0E0D01EB8202F861E946CCE9D7
:100F880000A0C9E9001290E6EC0300240280FFFFEC
:100F9800000000300082FF7F0000003482FF7F00E5
:100FA800D4030024007E00807E0080FF000000380B
:100FB80004FF7FBF04FF7F3F00FEFF46002C00F0C8
:100FC800C982BBF1020FD8F8202000F0FA827969B3
:100FD800C7F8049002EB810E5FED0C5A8A00DCF82A
:100FE80008100EF104007A611A46DCF80C303B61F7
:100FF800331DD7F810903D61FD69C7E902CB8C46D7
:10100800834636F92210D8ED0B7A06EE101A33F91A
:10101800221006EE901A3EF92210B8EEC66A07EEC4
:10102800101AF8EEE66A3BF92210B8EEC77A26EEF7
:10103800256A66EEA56A27EE257A26EE276A66EE09
:10104800A76A27EE277A07EE901A51080232F8EEBF
:10105800E77A0AEB8100944280ED006A05EB810093
:1010680067EEA57AC0ED006A0CEB810009EB8101FF
:1010780080ED007A98ED0B7A67EE877AC1ED007AF9
:10108800BFD8D7F804903D69D7E902CB604662081B
:10109800BB6949469847D8F828307A69D8ED046A78
:1010A8001A441FED3D7A1FED3D6A2B1D904602F153
:1010B800040A5FED3F5A0022A84ED9E900EC51E03E
:1010C800F4EEC67AF1EE10FAC0F2C78247F6FE7067
:1010D80045F822000CEB0100D0ED007A66EEA77A05
:1010E800F4EEC77AF1EE10FA4BD9F4EEC67AF1EEC7
:1010F80010FAC0F2BA8247F6FE70BBF1020F43F84D
:1011080022002BD0D9F808000844D0ED007A66EE0A
:10111800A77AF4EEC77AF1EE10FA36D9F4EEC67A69
:10112800F1EE10FAC0F2CD8247F6FE7048F82200C0
:10113800D9F80C000144D1ED007A66EEA77AF4EEF6
:10114800C77AF1EE10FA1ED9F4EEC67AF1EE10FA6B
:10115800C0F2AF8247F6FE714AF82210023294427A
:101168007FF6B1AD51080EEB81008900D0ED007A11
:1011780066EEA77AF4EEC77AF1EE10FAA0D83046F8
:10118800A6E73046B9E73146E6E73046CEE7002C19
:1011980000F0E081BBF1020FD8F8203000F0E181C7
:1011A8007A69DCF8081003EB820EC7F80490930004
:1011B800DFED6B5A0EF1040000227B61DCF80C3085
:1011C8003B61331DD7F810903D61FD69C7E902CB3B
:1011D8008C46834656F82210D8ED0B7A07EE101A83
:1011E80053F82210B8EEC76A07EE101A5EF82210FC
:1011F800F8EEC76A07EE101A26EE256A5BF8221089
:10120800B8EEC77A66EEA56A26EE276A27EE257A33
:1012180066EEA76A27EE277A07EE901A510802327F
:10122800F8EEE77A0AEB8100944280ED006A05EB5C
:10123800810067EEA57AC0ED006A0CEB810009EB2E
:10124800810180ED007A98ED0B7A67EE877AC1ED1F
:10125800007ABFD8D7F804903D69D7E902CB604639
:101268006208BB6949469847D8F828307A69D8EDAA
:10127800046A1A449FED3E7A9FED3E6A131D92461A
:10128800DFF8E4C00022FB612B1D364ED9E9008E41
:101298004EE0F4EEC67AF1EE10FAC0F2FC81304668
:1012A80045F822000EEB0100D0ED007A66EEA77A31
:1012B800F4EEC77AF1EE10FA49D9F4EEC67AF1EEF7
:1012C80010FAC0F2EF813046BBF1020F43F822005A
:1012D8002AD0D9F808000844D0ED007A66EEA77A3B
:1012E800F4EEC77AF1EE10FA35D9F4EEC67AF1EEDB
:1012F80010FAC0F2C98130464AF82200D9F80C0029
:101308000144D1ED007A66EEA77AF4EEC77AF1EEE1
:1013180010FA1ED9F4EEC67AF1EE10FAC0F2AD81D9
:101328003146F86940F82210023294427FF6CBAC7D
:10133800510808EB81008900D0ED007A66EEA77AA3
:10134800F4EEC77AF1EE10FAA3D86046A8E7604633
:10135800BAE76146E5E76046CEE700BF0280FFFFD7
:10136800000000300082FF7F007E00800000003413
:1013780004FF7FBF04FF7F3F002C00F0EB807A69F9
:101388000021D8F82030C7F8109003EB820ED7F868
:101398001C909300FD610EF104021FED0C6A7B6145
:1013A800331D154656F821204808D8ED0B6ABBF1C5
:1013B800020F82F40002A2F5000207EE902A53F809
:1013C800212082F40002B8EEE77AA2F5000227EEA7
:1013D800067A07EE902A0AEB8002F8EEE77A27EE03
:1013E800267A67EE867A82ED007A09EB80024FEA68
:1013F800800067EEA67AC2ED007A27D05EF8212039
:1014080082F40002A2F5000207EE902A55F8212086
:1014180082F40002B8EEE77AA2F5000227EE067A17
:1014280007EE902ADCF80820F8EEE77A024427EE67
:10143800267A67EE867A82ED007A98ED0B7ADCF8E8
:101448000C2067EE877A0244C2ED007A02318C42A2
:10145800A8D8D7F8109060466208BB694946FD696C
:101468009847D8F828307A69D8ED046A1A441FEDED
:10147800407A1FED406A131D9246DFF8C4C200226D
:10148800FB612B1DAB4ED9E9008E4EE0F4EEC67A17
:10149800F1EE10FAC0F2C580304645F822000EEB96
:1014A8000100D0ED007A66EEA77AF4EEC77AF1EE85
:1014B80010FA49D9F4EEC67AF1EE10FAC0F2BF80FC
:1014C8003046BBF1020F43F822002AD0D9F80800B1
:1014D8000844D0ED007A66EEA77AF4EEC77AF1EE0A
:1014E80010FA35D9F4EEC67AF1EE10FAC0F2AE80F1
:1014F80030464AF82200D9F80C000144D1ED007AB0
:1015080066EEA77AF4EEC77AF1EE10FA1ED9F4EE79
:10151800C67AF1EE10FAC0F28B803146F86940F8CD
:101528002210023294427FF6CEAB510808EB8100BC
:101538008900D0ED007A66EEA77AF4EEC77AF1EE6C
:1015480010FAA3D86046A8E76046BAE76146E5E71F
:101558006046CEE7224649466046BB699847FFF792
:10156800B2BBC7F810B0002298ED0B6A331DDFED4F
:10157800726AD7F81CB0786956F8221007EE901AEC
:1015880053F82210B8EEE77A07EE901A51080232A3
:10159800F8EEE77A27EE267A0AEB810E94420BEBF7
:1015A800810167EEA67A27EE067A67EE867A8EEDD7
:1015B800007AC1ED007ADFD88300D7F810B07B61DC
:1015C8004DE61A46C7F810B098ED0B6A331DDFEDEB
:1015D8005B6AD7F81CB0786936F9221007EE101A42
:1015E80033F9221007EE901AB8EEC77A5108023282
:1015F800F8EEE77A27EE267A0AEB810E94420BEB97
:10160800810167EEA67A27EE067A67EE867A8EED76
:10161800007AC1ED007ADFD88300D7F810B07B617B
:1016280034E5F0EE675AFEEEE45A15EE900A34E718
:10163800F0EE675AFEEEE45A15EE901A6EE7F0EEF9
:10164800675AFEEEE45A15EE900A3AE7F0EE675A4A
:10165800FEEEE45A15EE900A4BE767EEA57AFDEE2A
:10166800E77A17EE900A00B232E567EEA57AFDEE4A
:10167800E77A17EE900A00B23FE5F0EE675AFEEE01
:10168800E05A15EE901A4CE6F0EE675AFEEEE05A74
:1016980015EE900A30E6F0EE675AFEEEE05A15EEC7
:1016A800900AFDE5F0EE675AFEEEE05A15EE900A54
:1016B8000AE667EEA57AFDEEE77A17EE901A09B208
:1016C8004AE567EEA57AFDEEE77A17EE900A00B2D2
:1016D8002CE5F0EE675AFEEEE45A15EE902A1FE468
:1016E80067EEA57AFDEEE77A17EE902A12B2FFF7B9
:1016F80031BBF0EE675AFEEEE45A15EE902AFFF77A
:10170800FDBBF0EE675AFEEEE05A15EE902AFFF7A1
:101718009BBBF0EE675AFEEEE05A15EE902AFFF7F3
:1017280080BB67EEA57AFDEEE77A17EE902A12B233
:10173800FFF724BB82FF7F00000000300000003864
:101748007E0080FF30B5154C154685B0046004F165
:10175800080C01AB07C98CE80700D4ED047AF5EE54
:10176800C07A83E80700F1EE10FA14DDF7EE006A9C
:1017780086EEA77A84ED0B7A6DB1204640F8145FA7
:1017880001F02AFA064903690020064AE16162620B
:10179800E36005B030BD012005B030BDD40300249E
:1017A800002000300000003000680830704700BF9B
:1017B800B1F5807F03680A4628BF4FF48072B1F5FF
:1017C800807F9A6094BF0020012070470068143021
:1017D80001F038BA30B5046883B008480D46A368EC
:1017E800626AE1699B00009004F1140001F0F6F9C7
:1017F8000020C4E9000503B030BD00BF910B00080C
:10180800024B0022C3E90522704700BFD40300241D
:10181800704700BF064A0749074808B508F0DCFFCB
:10182800034A04490548BDE8084008F0D5BF00BF91
:1018380000000024191800080404002408040024E7
:10184800B7EE007A0346012282B0C1F307204FF0B9
:10185800000CC7EE007AADF80410C3F80CC04FF0C6
:10186800000C987098181A70597083F803C09A8001
:101878009A71C3ED027A02B000F05ABB38B54479C8
:10188800054683790130640064B2B3B100F02CFCE2
:10189800B0FA80F35B092343DBB2A3F17F026B71DB
:1018A800012A0ED9FF2B07D1D5ED037A95ED027ADF
:1018B80077EE877AC5ED037A38BD00F015FC43B2A0
:1018C800E9E70023EB6038BD014803F0C7BC00BF5F
:1018D800680F0024014803F0C1BC00BF680F002452
:1018E800014803F0BBBC00BF680F0024014803F0A7
:1018F800B5BC00BF600B0024014803F0AFBC00BFBB
:10190800600B0024014803F0A9BC00BF600B002451
:1019180082B04FF0000C0323ADF80410BDF804208A
:1019280080F810C00280438002B070472DE9F04F64
:10193800BE4E00258FB0BE4C037006F140034260D6
:10194800074601928846202229463046C4F8583175
:10195800C4F85461CDE90355CDE90555CDE90755DE
:10196800CDE90955CDE90B5509F080FD202229461E
:1019780004F59970C4F82151C4F82551C4F82951C7
:10198800C4F82D5109F072FD019B84F8385284F88F
:1019980020317A68002A5FD02B464146B64604F5C6
:1019A800907599464FF0010A03EB0310D1F800B087
:1019B800D1F804800133D1F808C02218CE6844F861
:1019C80000B0C2F80480C2F808C0D660087C2EF8BF
:1019D800029B10740A7C05F8012F002A69D07A68E6
:1019E800113184F838A29A42DED84FF48022914807
:1019F8009DF8043008214FF000084FF00009C4F8A2
:101A080074310023C4E957020122C4F8643184F810
:101A18007031C4E95A2194F83812C4E9608981B355
:101A280084F8713184F878213B78C4F88821002241
:101A3800C4E96322A3B3012200200121013B84F8F9
:101A48009421C4E96801082B2CD8DFE803F0ABB077
:101A5800B5BABFC4C9CFD6009DF804300121C4F877
:101A68006421C4F874314FF4802384F87021714ADA
:101A7800C4E9572308230022C4E95A130023C4E900
:101A880060230123002284F87131002384F878311F
:101A98000323C4F888313B78C4E96322002BCAD1F8
:101AA80084F89431644802F013F8034638B1FFBE55
:101AB800FEE77A6811319A423FF676AF95E703A9B7
:101AC8005D48039302F062F90546002868D10222B6
:101AD80040F2FF73CDE9082300230422CDE90A234D
:101AE80094F82031002B00F0D5804FF0060921E052
:101AF800022B00F08980012B40F0C4809AF8013055
:101B0800012B00F0C180002B4C4B18BF002306A905
:101B18004948CDE9063901F007FC002840F0BF80AC
:101B2800013594F82031EDB2AB4240F2B380444B1A
:101B380053F825902FB207EB071704EB070A504616
:101B480000F0F6F905EB051323441B7C042B7DDC20
:101B5800022B00F3918000F08D806319002283F836
:101B68001021E35D002BC3D19AF80130062B00F059
:101B78008580072B00F08A80022B00F09680032BCB
:101B880000F09580002B00F09680012B00F09180EA
:101B9800042B00F09280052B2A4B18BF0023B6E7D0
:101BA800FFBEFEE703224023C4E966237AE7072243
:101BB8006023C4E9662375E70F228023C4E96623FE
:101BC80070E71F22A023C4E966236BE73F22C023E6
:101BD800C4E9662366E77F22E023C4E9662361E758
:101BE800FF224FF48073C4E966235BE740F2FF12DB
:101BF8004FF49073C4E9662354E740F2FF324FF480
:101C0800A073C4E966234DE79AF80130042B37D056
:101C1800052B3DD0002B40D0012B42D0022B42D0C7
:101C2800032B094B18BF002371E700BF00400030A9
:101C380010040024002002406C0500240002B02596
:101C4800D4B400080000B84F0020903603233E1D8E
:101C580004EB05084FF0000B264488F81031304695
:101C68000BF1010B00F064F998F8103104365B456C
:101C7800F5DC76E70123EAE70223E8E7104B46E7BD
:101C8800104B44E7002342E70F4B40E70F4B3EE77A
:101C98000F4B3CE70FB0BDE8F08F0E4B37E7FFBEA8
:101CA800FEE70D4B33E70D4B31E70D4B2FE70D4B9F
:101CB8002DE70D4B2BE70D4B29E70D4B27E700BF11
:101CC8000800900C1000C0102000F0148000501D77
:101CD800000180210004002A0008302E0010603224
:101CE8000040C03A0080F03E000052470000214307
:101CF8000000844B38B5094C40F2FF724FF00111D7
:101D080004F5AE75284601F0EFFF94F82021D4F8C9
:101D180054112846BDE8384001F05ABD100400248B
:101D2800064B0F29D3F8543198BF03EB41031B88A6
:101D380000EE103ABBEEC80A704700BF100400243A
:101D4800214B02689A4200D07047204A002320485D
:101D5800D2F8D81030B51F4C41F0200183B0C4F838
:101D6800C001092004F5E075C4E971034FF48060EF
:101D7800C2F8D810D2F8D8204FF40061C4E9733003
:101D880094F8380202F02002C4F8D4114FF400513C
:101D9800984201922846C4F8D811C4E97833019BC7
:101DA80014BF00234FF48073C4F8DC3102F014FA36
:101DB80008B1FFBEFEE704F5AE73C4F8A851C4F835
:101DC800F83103B030BD00BF002002400044025883
:101DD8004000024010040024014802F0DBBC00BFB0
:101DE800D005002402682DE9F84F4B4B9A4201D0E8
:101DF800BDE8F88F494D95F83832002BF8D095F8A2
:101E08002031002B77D0002405F10C0905F59976CF
:101E180005F59077A04613E003F0010117F811BC0F
:101E2800A9F1080000F06EF9BBF1010F25D895F86B
:101E38002031013409F111090236A2B293422BD99B
:101E480017F8012F002AF4D0D5F854310021327840
:101E580033F81400D5F8583103EB041323F81200B3
:101E6800338801339BB233805FFA83FA3A789A4217
:101E7800D2D88A46A6F80080D0E7CAF34001A9F173
:101E8800040000F03FF9BBF1020FCAF38001CED085
:101E9800484600F037F9CAE7002395F83802204988
:101EA80009229842C5F8C8314FF48060C5F8C011BE
:101EB800C5F8C4214FF400614FF40052C5F8CC3185
:101EC80008BF4FF48073C5F8D821C5E97401002212
:101ED8001448C5E97732C5F8E42102F07DF908B164
:101EE800FFBEFEE795F82021D5F854110E48BDE84D
:101EF800F84F01F06DBC0A4909224FF48060C5F81B
:101F0800C831C5E970124FF400614FF40052C5E9B9
:101F18007330C5E97512DAE7002002401004002486
:101F280040000240D00500246C050024704700BF23
:101F380030B583788FB00446022B37D0032B33D0CB
:101F4800012B31D000230A93E378012B2AD0022BEE
:101F580028D000230B93002320460C9301F006F9A8
:101F68000546204601F00AF923780990082B13D872
:101F7800DFE803F01F3245586B7E91A40500594BEA
:101F8800D3F8E02042F48072C3F8E020D3F8E030C0
:101F980003F480730893089B09A9284602F04CFFB4
:101FA8000FB030BD0B93D6E70A93CDE711230A9300
:101FB800CAE74C4B09A92846D3F8E02042F00102B1
:101FC800C3F8E020D3F8E03003F001030093009B4E
:101FD80002F032FF0FB030BD424B09A92846D3F8B2
:101FE800E02042F00202C3F8E020D3F8E03003F02A
:101FF80002030193019B02F01FFF0FB030BD394B64
:1020080009A92846D3F8E02042F00402C3F8E020EA
:10201800D3F8E03003F004030293029B02F00CFFB4
:102028000FB030BD2F4B09A92846D3F8E02042F065
:102038000802C3F8E020D3F8E03003F00803039364
:10204800039B02F0F9FE0FB030BD264B09A92846C4
:10205800D3F8E02042F01002C3F8E020D3F8E030D3
:1020680003F010030493049B02F0E6FE0FB030BDAA
:102078001C4B09A92846D3F8E02042F02002C3F8F7
:10208800E020D3F8E03003F020030593059B02F02D
:10209800D3FE0FB030BD134B09A92846D3F8E02072
:1020A80042F04002C3F8E020D3F8E03003F04003E8
:1020B8000693069B02F0C0FE0FB030BD094B09A97C
:1020C8002846D3F8E02042F08002C3F8E020D3F895
:1020D800E03003F080030793079B02F0ADFE0FB0DA
:1020E80030BD00BF0044025838B5054601F03EF83F
:1020F8000446284601F042F801462046BDE838402B
:1021080003F0A2B870B506460D4601F02FF8044654
:10211800304601F033F82A1E0146204618BF012236
:10212800BDE8704003F096B82DE9F04FC84C03465F
:102138002DED048B2046ABB023655D781E7803F047
:1021480055FEE0B9012D4FF00107C24A14BF4FF404
:1021580080134FF40003E0602260C4E9017793FA2A
:10216800A3F3B3FA83F34FF48078013BC4F81480E7
:10217800C4E907002046236103F0CCFD28B1012003
:102188002BB0BDEC048BBDE8F08F662313901B9039
:1021980041F288320EA90E93CDE91480CDE91600DC
:1021A800CDE91900204603F03FFE0028E7D1992326
:1021B80041F288320EA920460E9303F035FE00281E
:1021C800DDD14FF0050A4FF08079249041F2883331
:1021D800219008AA29901CA9CDF870A0CDF8949058
:1021E8009FED917B9FED929B9FED938BCDE9228094
:1021F800CDE9270020468DED087B8DED0A9B8DEDFE
:102208000C8B03F07DFF0028B9D11897ADF80800B2
:1022180013901B90CDE91480CDE91609CDE919007A
:10222800002D00F0BA80F023ADF80830C02341F249
:1022380088320EA986480E9303F0F6FD00289ED139
:1022480041F28832824802A903F058FE002896D14C
:102258004FF480744FF005084FF080754FF0000A76
:102268004FF0010B2190299041F2883308AA1CA94C
:102278002294CDF8708025959FED6D9B9FED6E8B18
:10228800CDE92300CDE927007148CDE908AB8DEDF4
:102298000A9B8DED0C8B03F033FF00287FF46FAFA2
:1022A800012706238DF8070041F2883213901CA9F4
:1022B8001B90219029900E971C93CDE91440CDE9ED
:1022C8001605CDE91900CDE92240CDE92400CDE974
:1022D80027005F4803F0A8FD00287FF450AF41F2C3
:1022E800883308AA1CA95A48CDF8708025959FED17
:1022F800547B8DED0A9B8DED0C8B8DED087B03F0E7
:10230800FFFE00287FF43BAF41F288320EA9504807
:1023180003F08AFD00287FF432AF402341F288326F
:102328000DF107014A488DF8073003F0E7FD002852
:102338007FF425AF02AA41F288330EA94448CDF8AC
:10234800388017959FED407B8DED049B8DED068BB6
:102358008DED027B03F0D4FE00287FF410AF2190AE
:1023680008AA299041F288331CA92294CDF87080DC
:102378002595CDE92300CDE927003548CDE908ABFF
:102388008DED0A9B8DED0C8B03F0BAFE00287FF4CF
:10239800F6AE002E60D00020F2E6612341F28832CA
:1023A8000EA920460E9303F03FFD00287FF4E7AE08
:1023B80041F2883202A9204603F01EFE00287FF46D
:1023C800DEAEBDF8083041F2883221901CA923F016
:1023D8007803299043F04003ADF808300623CDE98F
:1023E8002280CDE92400CDE9270020461C9303F084
:1023F8001BFD00287FF4C3AE20460225022441F2CB
:10240800883308AA1CA9CDF870A0CDF894908DED5A
:102418000A9B8DED0C8BCDE9084503F071FE002871
:102428003FF404AFABE600BF00000000010000006D
:102438001000000001000000000000000000400043
:102448000200000002000000400000004000000000
:102458004C06002400500052EB204FF480740023F7
:1024680000251C904FF4005022944FF440641F90B4
:10247800A02020930EAA23944FF4404427931CA92C
:1024880028934FF080531E9006202494002429930B
:102498004FF04073219005482593CDE90E4503F090
:1024A800A7FE003818BF01206AE600BF4C060024CA
:1024B8003E4B02682DE9F0479A428CB04FF0000578
:1024C800CDE90755CDE909550B9502D00CB0BDE80B
:1024D800F087374B0226374905AFD3F8D420B146E9
:1024E800DFF8D4A04FF0030842F48042C3F8D420A8
:1024F800D3F8D42002F480420092009AD3F8E02066
:1025080042F04002C3F8E020D3F8E02002F0400295
:102518000192019AD3F8E02042F02002C3F8E020AB
:10252800D3F8E02002F020020292029AD3F8E020C9
:1025380042F01002C3F8E020D3F8E02002F01002C5
:102548000392039AD3F8E02042F00202C3F8E02095
:10255800D3F8E03003F002030493049B03C9059009
:10256800ADF81810DAF8504034440236204600F02E
:10257800FDFD034620461C4600F000FE17F8013B0F
:1025880007A907902046CDE90895CDE90A8302F00E
:1025980053FC0E2EE6D100225C20114601F06AFCA5
:1025A8005C2001F0A5FC0CB0BDE8F087005000529B
:1025B8000044025814B500084C060024124B026867
:1025C8009A4200D07047114AD2F8D43070B523F43B
:1025D800804302250E4EC2F8D430346D2C440235A7
:1025E800204600F0C3FD034620461C4600F0C6FD09
:1025F8000146204602F060FD0E2DEED15C20BDE8BC
:10260800704001F083BC00BF0050005200440258E3
:102618004C060024014803F077BE00BF4C06002496
:1026280038B5036871B9026A00F1280500F5AC7481
:10263800012A0CBF002140218BBB1D4B5722C0F83B
:1026480058310DE0426A00F1C00500F5E874012A2E
:102658000CBF00214021EBB1164B5A22C0F8D031F3
:1026680000232046C4E901214FF480524FF48061D1
:10267800636262614FF48042C4E903314FF48073AE
:10268800C4E906234FF40033236201F0A5FD58B1D5
:10269800FFBEFEE7084B5822C0F8D031E0E7074BF1
:1026A8005922C0F85831DBE7C5E92044A56338BD95
:1026B800100002407000024028000240580002400A
:1026C8002DE9F043821D05468BB0031D05F10A0173
:1026D8000830CDE9052305F10C02AB69CDE9070106
:1026E8000992002B3DD0EB69B3FA83F84FEA5818EA
:1026F8000123022205AE0AAF4FF006090393CDE984
:10270800012356F8044B2B792278934216D02B6874
:10271800F3B1012B02D1F2B10A230493204600F051
:102728002DFD03462046009300F020FD694602F087
:1027380083FBBE42E5D10BB0BDE8F08369796378CD
:102748009942E4D1B8F1000FF3D02B68002BE0D107
:10275800CDF81090E2E76378022B14BF0A23082310
:10276800DBE74FF00108C3E7534A0368934230B5EB
:1027780005468BB055D02032934252D04F4A9342EF
:1027880004D02032934201D00BB030BD4C4C4D48A0
:10279800D4F8E03043F00103C4F8E030D4F8E03076
:1027A80003F001030593059BD4F8E03043F00803D8
:1027B800C4F8E030D4F8E03003F008030693069B31
:1027C800D4F8E03043F04003C4F8E030D4F8E03007
:1027D80003F040030793079BD4F8F03043F4000359
:1027E800C4F8F030D4F8F03003F400030893089BE1
:1027F800FFF766FFD4F8D830296843F001032F4A61
:102808003048C4F8D830891AD4F8D83018BF012114
:1028180003F001030993099B0BB0BDE83040FFF7B3
:10282800FFBE274C2848D4F8E03043F00103C4F831
:10283800E030D4F8E03003F001030093009BD4F8B3
:10284800E03043F01003C4F8E030D4F8E03003F08F
:1028580010030193019BD4F8E03043F04003C4F81F
:10286800E030D4F8E03003F040030293029BD4F840
:10287800F03043F48003C4F8F030D4F8F03003F4B7
:1028880080030393039BFFF71BFFD4F8D830296814
:1028980043F00103084A0C48C4F8D830891AD4F820
:1028A800D83018BF012103F001030493049B0BB037
:1028B800BDE83040FFF7B4BE04580140045C014055
:1028C80000440258FC080024A0060024014801F036
:1028D80061BF00BFF8070024014801F05BBF00BFDB
:1028E80070080024014801F055BF00BF540A0024B5
:1028F800014801F04FBF00BFCC0A00241A4A036800
:10290800934210B40BD02032934208D0174A934216
:1029180016D02032934213D05DF8044B7047144B05
:102928000022D3F85442C3F85822002CF4D0D3F82C
:102938004802D3E9931223465DF8044B520818471E
:102948000B4B0022D3F8B044C3F8B424002CE3D0D6
:10295800D3F8AC24D3F8A814D3F8A4045208234617
:102968005DF8044B184700BF04580140045C01405F
:10297800A0060024184A0368934210B40BD02032F2
:10298800934208D0154A934217D02032934214D06C
:102998005DF8044B7047124BD3E994245208C3F8EE
:1029A8005822002CF4D0D3E99201234601EB82018E
:1029B80000EB82005DF8044B1847094BD3F8AC24B0
:1029C800D3F8B0445208C3F8B424002CE0D0D3F8AC
:1029D800A814D3F8A404E8E704580140045C0140B3
:1029E800A0060024000000002DE9F04F0C684FF409
:1029F8001776754F87B004FB06F6012C07EB060A1D
:102A0800C0F800A000F3A0800D468E464FF00008E5
:102A1800D44669A3D3E9002369A1D1E90001CDE92E
:102A2800022306ABCAF8508203EB8403CDE9040104
:102A380053F810BC53F8083CCAE992880193BEE8E1
:102A48000F00ACE80F00BEE80F00ACE80F00019BD8
:102A58009EE80300CAF828B0CAF8C0308CE8030022
:102A68002B69042B0CD8DFE803F0737D87910300F2
:102A78004FF41773554A03FB04739A64C3F8E020B4
:102A8800AA692B6A002A43D0002B4FF4177308BF9A
:102A9800022203FB047318BF0322DA6201221A63BD
:102AA800EA696B6A002A40D1191E4FF4177318BFE0
:102AB800012103FB0473C3E931126B69022B05D8AA
:102AC800434A12F80380434A52F823904FF417738D
:102AD80006F128004246494603FB047400233844A3
:102AE80063646363E365C4F8DC30C4F8CC30C4F8CD
:102AF800F430C4E90F33C4E91533C4E93533C4E904
:102B08003B33022305F058FC002849D0FFBEFEE7FE
:102B1800191E4FF4177318BF012103FB0473C3E98F
:102B28000B12EA696B6A002ABED0002B4FF41773A8
:102B380008BF022203FB047318BF0322C3F8C42092
:102B48000122C3F8C820B8E7012007B0BDE8F08F1C
:102B58004FF417734FF4FA5203FB04739A64C3F8E3
:102B6800E0208DE74FF417734FF47A5203FB047398
:102B78009A64C3F8E02083E74FF417734FF4FA42DE
:102B880003FB04739A64C3F8E02079E74FF41773E2
:102B98004BF6803203FB04739A64C3F8E0206FE7B6
:102BA80006F1C000022342464946384405F004FCB9
:102BB8000028CAD0FFBEFEE704580140045C01406B
:102BC80024580140245C0140A0060024007701003D
:102BD8001CB5000820B500080068704770B5046887
:102BE80082B015460E46C4F85032C4E99212069ACD
:102BF800C4F85422226A012A9AB211D0294604F153
:102C08002800019205F094FC636A019A012B10D008
:102C1800294604F1C00005F08BFC002002B070BD0D
:102C280004F12800019205F015FD636A019A012B51
:102C3800EED1314604F1C00005F00CFD002002B0D1
:102C480070BD00BF03681B69042B05D8044A02EB5A
:102C5800830393ED000A70479FED020A704700BF97
:102C68002CB5000800803B470368D3F8580270472A
:102C7800704700BF08B500F0E1FABDE8084001F070
:102C8800C1B900BF704700BF00F0EABA2DE9F041B2
:102C9800CEB004464C2200210AA808F0E7FB202207
:102CA800002102A808F0E2FBBC2200211EA808F0BF
:102CB800DDFB022002F046FF2368012B4FF00003E2
:102CC80054D0534A02250193C820D16A514B21F0B0
:102CD8000101D162D26A02F0010201929A6942F4BA
:102CE80040429A619B6903F440430193019B494A1E
:102CF80093699B04FCD548490224002201268B6A6B
:102D080004274FF0080823F0030323438B620523AD
:102D180016900AA818934FF48033109617941994B4
:102D28001597CDF86880CDE91B222122CDE91344FF
:102D3800CDE90A2303F0F0FB00B1FEE73F220323AD
:102D4800294602A8CDE9022300220823CDE904235D
:102D580040224023CDE9062340234FF48062CDE989
:102D6800082303F007FF0346B8B1FEE7294A042504
:102D78000093F0209169264B41F44041916192699A
:102D880002F440420092DA6A42F00102DA62DB6A37
:102D980003F001030093009BA9E720224FF4805120
:102DA80025934FF440152B9280222D931EA8309323
:102DB800269135914FF48071249234920C223394E9
:102DC800439140F2271120921022CDF884802A974F
:102DD8001F96CDE92E34CDE93B334FF48033CDE94E
:102DE80022463193002446930623CDE93E45279396
:102DF8004FF48063094C2C931E94CDE9281204F0FB
:102E0800DDF800B1FEE702F0C3FE4EB0BDE8F08188
:102E18000004005800480258004402580F130F03DA
:102E28002DE9F04104460D4684B001264FF4807721
:102E38004FF00008D1E9000184E8030000F0CEF962
:102E48002046FFF723FF01F08BF84FF04053684608
:102E5800ADF800600193364B0397029301F09EF89A
:102E68004FF04043192268468DF80F6001938DF8A2
:102E78000820ADF80D708DF801608DF80A8001F01A
:102E88008DF8042001F07AF806F0ECFE06F0A4FDB7
:102E98002B791BBB6B799BB1BFF34F8FBFF36F8F40
:102EA800244B0022C3F85022BFF34F8FBFF36F8F1C
:102EB8005A6942F400325A61BFF34F8FBFF36F8FE4
:102EC8000022002369461C48CDE9002306F05EFE77
:102ED800194806F0BDFE04B0BDE8F081154CC4F8F1
:102EE8008480BFF34F8FD4F8803043F6E071C3F38A
:102EF800C906C3F34E334FEA431C0CEA01003346BC
:102F080040EA8372013BC4F860225A1CF8D1ACF144
:102F1800200C1CF1200FF0D1BFF34F8F636943F4ED
:102F280080336361BFF34F8FBFF36F8FB2E700BF8A
:102F38000E00010300ED00E0580B002403480023B5
:102F4800034A0449036007F047BC00BF580B00243C
:102F580000000024792C000810B41A4C00221A4BE7
:102F6800D4F88810194841F47001C4F88810196819
:102F7800174C41F0010119601A6119680840154998
:102F880018609A61DA611A629A62DA621A635A639D
:102F98009A63DA631A645A64186820F48020186007
:102FA8001A6623681940B1F1005F03D20A4B012267
:102FB800C3F80821034B4FF000625DF8044B9A6098
:102FC800704700BF00ED00E0004402587FEDF6EACC
:102FD8000010005C0000FFFF0080005100F57171D7
:102FE800D0F8040406F02EB9C1EBC10300EB83034B
:102FF800D0F80404D3F8082206F052B9C1EBC10393
:1030080000EB8303D0F804049A6C06F087B900BF7C
:10301800D0F8040406F026BAC16810B5044619B100
:10302800022900D0FEE70121D4F8040406F004FACE
:10303800D4F80404BDE8104006F0D6B910B504462B
:10304800D0F8040406F0FCF92268D2F8003E43F0F8
:103058000103C2F8003E236A23B1034A136943F00F
:103068000603136110BD00BF00ED00E0D0F80404B2
:1030780006F0F0B9D0F8040406F004BAD0F8040455
:1030880006F0FEB9D0F8040406F0FEB9D0F804043E
:1030980006F0FCB99446D0F898021A4608B563467B
:1030A80002F040FC032802D8024B185C08BD02203D
:1030B80008BD00BF50B50008D0F8980208B502F066
:1030C800BFFC032802D8024B185C08BD022008BDCB
:1030D80050B50008D0F8980208B502F0F5FC0328AE
:1030E80002D8024B185C08BD022008BD50B5000884
:1030F8000A06D0F8983206D4C1EBC10103EB81016E
:1031080091F8FE01704701F07F01C1EBC10103EBAB
:10311800810191F83E007047D0F8980208B502F096
:10312800EBFB032802D8024B185C08BD022008BD3F
:1031380050B50008D0F8980208B502F059FC0328E9
:1031480002D8024B185C08BD022008BD50B5000823
:10315800D0F8980208B502F023FC032802D8024BE5
:10316800185C08BD022008BD50B50008024B027863
:1031780053F82200704700BF74B50008024B42782C
:1031880033F81200704700BF54B50008704700BFFD
:103198000F4B1B780BB90120704710B504464FF44C
:1031A8007A700C4AB0FBF3F31068B0FBF3F000F050
:1031B800C1FE0F2C00D808B1012010BD0022214605
:1031C8004FF0FF3000F056FE034B00201C6010BD8E
:1031D80038000024300000243C00002438B50320C7
:1031E800124D00F035FE124C03F024FC114A12492E
:1031F8009369C3F30323CB5C03F01F0320FA03F3A3
:103208000F202B60926902F00F028A5C02F01F0205
:10321800D3402360FFF7BCFF10B10124204638BD1E
:103228000446FFF7B3FF204638BD00BF3000002436
:10323800340000240044025840B50008034A044BF7
:1032480011681B780B441360704700BF701300248B
:1032580038000024014B1868704700BF7013002421
:1032680038B50446FFF7F6FF0546631C02D0044B49
:103278001B781C44FFF7EEFF431BA342FAD338BD6B
:1032880038000024014B1868000C70470010005CDF
:10329800704700BF806B08B5FFF7FAFF08BD00BF95
:1032A800836B5A6D12F0500F5A6D10B51DD1196805
:1032B80042F400725A650A6812F0080FCA681BD0F7
:1032C80012F4406F0DD1CA6894040AD45A6D22F4DE
:1032D80080725A655A6DD10403D45A6D42F00102C6
:1032E8005A651846FEF77EFD10BDD2060AD4DB6C7F
:1032F800BDE81040DB6C18479007E7D01846FEF78A
:1033080071FDF1E71846FEF711FE10BD806B08B598
:10331800436D43F040034365836D43F004038365C5
:10332800FEF704FE08BD00BFF0B5002283B001928D
:1033380090F85020012A00F01C81034601201A68E9
:1033480083F850009468640700F18A800C68C4F31D
:103358001305002D40F08F80C4F38464A0404D68AD
:103368004FF01F0ED6694FEA951C30430CF00C0C39
:10337800D06105F01F0002F1300584400EFA00FE0E
:103388005CF8050020EA0E0004434CF805409068FC
:1033980040076ED4956815F0080547D10C680720DA
:1033A80002F11406B94F4FEAD45CC4F304540CF08C
:1033B800040C00FA04FE886800FA04F45CF80600BD
:1033C80020EA0E0020434CF80600386800F07040F0
:1033D800B0F1805F00F0C580D068D668C70600F1FC
:1033E800E880C6F382064869760000FA06F60F6997
:1033F800042F00F0C18002F16004086854F827C067
:1034080000F0F8400CF0004C40EA0C00304344F85F
:103418002700487E0E69012854F8260008BF4FF09F
:10342800004520F00040054344F826509068C40742
:1034380014D4CE68086806F01807954CD2F8C05026
:10344800FC40C0F31307044025EA07052C43C2F8E3
:10345800C040904CA64246D0002816DB002003E06E
:103468005A6D42F020025A65002283F8502003B0BA
:10347800F0BD9068DAE794FAA4F5B5FA85F5C4F3D7
:10348800846405F01F05A84069E783498A4200F073
:10349800B68001F580718A4200F0B1807F4D804C82
:1034A800A968A46801F0E076E44304F00104002C64
:1034B80000F0B4807B4CA04200F0FC807A4CA04223
:1034C80000F01A81794CA042C8D14902C6D4744987
:1034D8008A42C3D1AA68002022F0E072324342F443
:1034E8008002AA60C0E7002F6AD090FAA0F4B4FA6C
:1034F80084F4013404F01F04092C00F2A48090FA2B
:10350800A0F4B4FA84F490FAA0F5B5FA85F501347C
:1035180001260135A40605F01F0504F0F84406FA53
:1035280005F52C4390FAA0F0B0FA80F0304400F092
:103538001F0000EB400000052043C60D02F11405F2
:10354800C0F30450072406F0040604FA00F774597F
:1035580024EA07048F6807FA00F0204370510868CE
:103568007AE7D6684869C6F38206760000FA06F656
:103578003DE7022003B0F0BD106E0C6800F0F84083
:10358800A506B0EB846F30D0506E00F0F84085424D
:1035980026D0906E00F0F84085422BD0D06E00F017
:1035A800F84085427FF442AFD06E20F00040D066EC
:1035B8003CE77608486906F0080600FA06F616E7BA
:1035C800800E441C04F01F06092E2DD8A4060120E5
:1035D80004F0F844B040044306EB46000005ABE7AE
:1035E800506E20F000405066D3E7106E20F0004087
:1035F8001066C9E7906E20F000409066CEE7264C32
:103608002B4D04F58074A96854F8F86CA468344309
:1036180001F0E076E44304F0010448E75A6D012024
:1036280042F020025A651FE706EB4600A506012472
:103638001E3805F0F84504FA06F60005354340F053
:103648000070284379E790FAA0F5B5FA85F590FA65
:10365800A0F4B4FA84F4013501260134AD0604F06F
:103668001F0405F0F84506FA04F4254390FAA0F47F
:10367800B4FA84F4344404F01F0404EB4404A4F1C1
:103688001E00000540F00070DBE700BF0010005C82
:10369800FFFF0F000000FF470020024000630258B0
:1036A80000600258000084CB000052C70000B8CF69
:1036B8000023024008023FF5D1AE17498A427FF441
:1036C800CDAE164AA9681268154821F0E071920932
:1036D8003143A0FB020241F400019209A9605200A3
:1036E8000192019A002A3FF4B9AE019A013A019277
:1036F800019A002AF9D1B1E611F080707FF4AEAEDC
:1037080005498A427FF4AAAEAA6822F0E0723243E1
:1037180042F08072AA60A7E60060025830000024D8
:10372800632D3E0503689A68D20701D500207047CB
:103738009968214A114270B5044608D0636D01208A
:1037480043F010036365A36D0343A36570BD9968D7
:103758001A4A0A4042F001029A60FFF77BFD23688B
:10376800174A054693421ED002F5807293421AD03A
:10377800144A9268114E0AE09A68324042F00102F7
:103788009A60FFF767FD401B0228D7D823681A689C
:10379800D2070FD49A68D107EED5FFF75BFD401B1F
:1037A8000228F3D9CAE7084A9268D006E2D0074A45
:1037B8009342DFD1002070BD3F000080C0FFFF7F33
:1037C800002002400063025800230240002102400A
:1037D8002DE9F0413A4D044600680F461646A842C6
:1037E80019D0384B984216D0374DAB6880684207DD
:1037F80016D494F85020012A12D003F01F08012291
:10380800B8F1090F84F850200DD90023012084F85D
:103818005030BDE8F0812D4DAB6880684207E8D58F
:103828000220BDE8F08140F2212323FA08F3DB43AC
:1038380013EA0205E9D12046FFF774FF002839D1C1
:10384800626D234B2168134043F480736365B8F1BC
:10385800000F02D01B4B994203D0636D23F48013F1
:103868006365636D13F4805328D0A36D23F00603BA
:10387800A365E06C3346174D3A464031C563164D93
:103888000564164DC5641C2541F8405C002584F884
:10389800505051F83C5C45F0100541F83C5C00F094
:1038A80059FE22680E4B91680B4043F00403936065
:1038B800BDE8F08184F85050BDE8F081A365D8E7F1
:1038C8000020024000210240006302580023024009
:1038D800FEF0FFFFA93200089D32000815330008EA
:1038E800C0FFFF7F38B503689A68910702D59B68C7
:1038F800002038BD9A68D20723D59A68044602F09A
:103908000D02012A08D0636D012043F0100363659E
:10391800A36D0343A36538BD986803210A4A024092
:1039280042F002029A601960FFF794FC054604E031
:10393800FFF790FC401B0228E5D823689B68DB074B
:10394800F6D4002038BD00BFC0FFFF7F38B5574A06
:1039580004460368934226D002F58072934222D02F
:10396800534B9B6813F4403F22D003F01DFA636861
:103978000546B3F5003F00F08880B3F5403F70D0AE
:10398800B3F5803F00F08180FFF77CFC41F2030330
:1039980098422DD8474B9D425DD92268936843F4DD
:1039A8008073936038BD444B9B6813F4403FDCD16F
:1039B8004FF4002004F07AFA63680546B3F5101F47
:1039C8006DD008D8B3F5E01F55D01AD9B3F5001F4C
:1039D800DAD14509D8E7B3F5201F4AD0B3F5301F2F
:1039E800D2D1FFF74FFC41F20303984233D92D0A95
:1039F800324B9D421DD82268936823F4407393602C
:103A080038BDB3F5801F06D00AD9B3F5A01F02D080
:103A1800B3F5C01FB8D19B0C5B00B5FBF3F5B3E75A
:103A2800B3F5002FF7D023F40022B2F5802FF2D09F
:103A3800AAE7234B234A2B4493421ED9224B234AFD
:103A48002B449342226893682BD823F4407343F4A1
:103A58000073936038BD2268936823F48073936081
:103A680038BD8508FFF70EFC41F203039842BFD822
:103A780090E7C50988E7050986E72268936823F473
:103A8800407343F48073936038BD1B0CB5FBF3F5AA
:103A9800FFF7F8FB41F203039842A9D87AE78509B2
:103AA80072E743F44073936038BD00BF00200240C2
:103AB80000630258002D310100230240105E5F00B0
:103AC800EFA1A0FF0F5E5F00DF4341FF1FBCBE00F8
:103AD80030B5002383B00193002800F0D080456DF5
:103AE8000446002D00F0BA80226893689B0003D535
:103AF8009168714B0B4093609368DD0015D46F4B50
:103B080090686F491B6801406E489B0941F08051DD
:103B1800A0FB030391609B090193019B2BB1019BBF
:103B2800013B0193019B002BF9D19368D80024D461
:103B3800636D012543F010036365A36D2B43A365F3
:103B4800936813F0040F636D1DD1D9061BD4636D00
:103B580023F4817343F0020363659368DB0728D479
:103B6800594B9A4217D003F580739A4213D0574B9A
:103B78009B68D9071DD4564A15E09368002513F0B1
:103B8800040F636DE1D0636D012543F010032846EF
:103B9800636503B030BD4C4A4E4B92689B68134333
:103BA800D80706D44C4A9368616823F47C130B4306
:103BB8009360FFF767FB41F20303A1689842237FF4
:103BC80052D894F815C01A04206B42EA4C320243CA
:103BD8000A43012B03D1236A013B42EA4342636A49
:103BE80023B103F47873A16A0B431A4323683B4952
:103BF800D86801400A43DA609A6812F0040F9A689C
:103C08001CD112071AD4D868354A217D024042EAED
:103C18008132E16A0A43DA6094F83820012A3AD0FE
:103C28001A6922F001021A611A692046616B22F0B2
:103C380070420A431A61FFF789FE2368E268012A85
:103C480021D01A6B22F00F021A63636D284623F005
:103C5800030343F00103636503B030BDFEF770F85A
:103C6800A56584F850503FE71029AAD1617D1A0450
:103C780042EA4132216B0A4342F01C02A9E70125BE
:103C8800284603B030BD196BA26921F00F01013A33
:103C98000A431A63D9E7D4E9102118690A4311497C
:103CA80001400A43A16C0A43E16B42EA014242F037
:103CB80001021A61B8E700BFC0FFFF5F30000024AF
:103CC800C0FFFF6F632D3E050020024000600258D0
:103CD80000630258002102400023024003C0F0FFA5
:103CE800FCBFFFFF1EF800FCF0B5002383B0019372
:103CF80090F85030012B40D0012304460E4615465B
:103D080080F85030FFF7EEFDE8B9676D05F08042A6
:103D18001B4B06F480311B4D3B401B4F43F0020305
:103D2800636523689E68354015430D4345F000459B
:103D38009D609A68002A0FDB636D23F0030343F04C
:103D48000103636503E0636D43F0100363650023BB
:103D580084F8503003B0F0BD019A01320192019A03
:103D6800BA42E6D9636D0022012023F0120384F8D9
:103D7800502043F010036365ECE7022003B0F0BD68
:103D8800FDEEFFFFC0FFFE3FFF955A55F0B490F8D7
:103D980050200E68012A49D00346294A01201C6890
:103DA80083F85000944208D05A6D002142F0200256
:103DB80083F850105A65F0BC7047224DAA68520724
:103DC8000AD5A2685A6D012042F020025A650022E5
:103DD80083F85020F0BC7047A06810F00400F1D1BF
:103DE800C6B1DFF868C04F68DCF8082022F440420A
:103DF8003A43CCF80820A468AA682243D40713D40D
:103E08008A68DCF8081016430F4A0A401643CCF8B3
:103E18000860DCE70D498A6822F440428A60A0689D
:103E2800AA680243D00704D50020D0E70220F0BCDE
:103E380070478C683046044A22408A60C7E700BF52
:103E48000020024000210240E0F0FFFF0023024072
:103E580006494FF6FF0C0002054BCA6800F4E06003
:103E680002EA0C0210430343CB60704700ED00E008
:103E78000000FA051B4BDB68C3F3022300B5C3F14E
:103E8800070E03F1040CBEF1040F28BF4FF0040E17
:103E9800BCF1060F1AD9033B4FF0FF3C0CFA03FCA8
:103EA80022EA0C024FF0FF3C00280CFA0EFC21EA33
:103EB8000C0101FA03F141EA02010ADB09010A4B8C
:103EC800C9B2034483F800135DF804FB00221346CB
:103ED800E8E700F00F000901044BC9B20344197662
:103EE8005DF804FB00ED00E000E100E0FCEC00E020
:103EF800002807DB00F01F0101234009024A8B401C
:103F080042F82030704700BF00E100E000280DDBD8
:103F18004309012200F01F000549203302FA00F08E
:103F280041F82300BFF34F8FBFF36F8F704700BF77
:103F380000E100E0431EB3F1807F0CD24FF0E02295
:103F4800002006494FF0F00C5361072381F823C085
:103F58009061136170470120704700BF00ED00E0D9
:103F6800BFF35F8F044B00215A6A22F480325A62F1
:103F7800C3F89410704700BF00ED00E0064B40F016
:103F88000100C3F894005A6A42F480325A62BFF3BF
:103F98004F8FBFF36F8F704700ED00E0174A4378EB
:103FA800C2F89830017821B3436800B5C2F89C3054
:103FB800C37A90F80CC01B0690F80FE043EA0C7324
:103FC80090F80AC00B43817B43EACC4390F80DC0BC
:103FD80043EA8C4390F809C043EA4143017A43EA33
:103FE8000E4343EA0C2343EA4103C2F8A0305DF8CC
:103FF80004FBC2F89C10C2F8A010704700ED00E066
:10400800704700BF08B5FFF7FBFF08BD0268344BD7
:10401800344930B4344D354CAA4218BF9A420CBFCB
:10402800012300238A4208BF43F001033031A24232
:1040380008BF43F0010330348A4208BF43F001034C
:104048003031A24208BF43F0010330348A4208BF2E
:1040580043F0010301F55C71A24208BF43F001037C
:1040680004F55C748A4208BF43F001033031A24270
:1040780008BF43F0010330348A4208BF43F001030C
:104088003031A24208BF43F0010330348A4208BFEE
:1040980043F001033031A24208BF43F001038A42D2
:1040A80008BF43F0010313B9114B9A4213D1D3B29D
:1040B8001049114C103BA1FB03515F2B0F4BC1F36F
:1040C800021103EA0203615C88BF0433C16583659A
:1040D800184630BC704722F0FF038365F8E700BF3D
:1040E80010000240400002402800024058000240F0
:1040F800B8040240ABAAAAAAA4B5000800FCFFFFB6
:104108000368294A294930B4294D2A4CAB4218BFC3
:1041180093420CBF012200228B4208BF42F00102E9
:104128002831A34208BF42F0010228348B4208BF5D
:1041380042F001022831A34208BF42F001028B423B
:1041480008BF42F0010212B91B4A934213D1DBB2F5
:104158001A4C1B4A0121083B1A4DA4FB0343456630
:1041680002EB1312C3F30413920001FA03F302667D
:10417800836630BC7047DAB21349144C1944103ABC
:10418800A829A4FB02234FEA131300D80833104AC6
:1041980003F01F0501210F4C1A44A9404466920000
:1041A80081660266E5E700BF085402583054025899
:1041B8001C5402584454025894540258CDCCCCCCC8
:1041C8000096001680580258F0FBFDBFABAAAAAAB9
:1041D800008200108008024070B50446FFF73AF8E4
:1041E800002C00F0C68023680546954A934248D0C3
:1041F8001832934245D0303292498B4218BF9342CD
:1042080001F130010CBF012200228B4208BF42F0AD
:10421800010218318B4208BF42F0010218318B426B
:1042280008BF42F0010218318B4208BF42F0010278
:1042380001F556718B4208BF42F0010218318B42DA
:1042480008BF42F0010218318B4208BF42F0010258
:1042580018318B4208BF42F0010218318B4208BF67
:1042680042F0010218318B4208BF42F001021831B6
:104278008B4208BF42F001021AB9734A934240F0D8
:10428800F5800222002184F8352084F834101A6859
:1042980022F001021A6005E0FEF7DCFF431B052B44
:1042A80040D823681A68D107F6D4D4E902252169D1
:1042B8002A43A0691D680A4361690A43E169024308
:1042C8000A4362492940256A2A430A43616A042944
:1042D8002FD01A605A6922F007021143596120460B
:1042E800FFF794FEE26D3F2302F01F0293408360C4
:1042F8002046FFF705FFA368802B3CD06368A06EBB
:10430800DAB2013BD4E91851072B2A60486026D954
:104318000023C4E91B33636700200123606584F828
:10432800353070BD202203230120626584F83530C2
:1043380070BDD4E90B5129430A431A605969A26A2E
:1043480021F00701114341F00401002DC6D00028D7
:104358004FD1012A6ED032F00202BFD151E0501E77
:10436800072810D9626FD4E91B31002018604A6011
:10437800D2E7012070BD0023A16ED4E91802636062
:1043880003605160C4E72168314B324DA94218BF20
:10439800994205F114050CBF01230023A94208BF67
:1043A80043F001031435A94208BF43F00103143553
:1043B800A94208BF43F001031435A94208BF43F0DE
:1043C80001031435A94208BF43F001033BB9224B4E
:1043D800994204D0214B224913449B0003E0214B0E
:1043E800214913449B0001228240C4E91B316267C2
:1043F800BBE7B0F5005F0ED0022A05D9032A7FF487
:104408006DAFEA017FF56AAF012340221846626565
:1044180084F8353070BD032A3FF660AF01A050F82C
:1044280022F000BF114400080B44000811440008A2
:104438003D440008B5F1C07F7FF450AFE4E700BF0A
:104448001000024040000240B80402403F8010FEC5
:10445800085402581C540258945402583F820010C1
:10446800400902403F96001640590258324A3348E4
:104478003349834218BF934200F128000CBF012240
:1044880000228B4208BF42F001022831834208BF54
:1044980042F0010228308B4208BF42F00102283165
:1044A800834208BF42F001028B4208BF42F001027A
:1044B80012B9244A934238D102220021224D84F8AD
:1044C800341084F835201A681540A268402A2AD08A
:1044D800802A0CBF4FF480400846266AD4E90312AC
:1044E800D20842EAD102616942EAD102A16942EAEC
:1044F800D102E16942EAD102144942EA161219448A
:104508002A4302431248A0FB010120461A600B0906
:104518009B00E365FFF77AFDE26D012302F01F02BD
:1045280093404360E4E61020D7E7402203230120AC
:10453800626584F8353070BD085402581C5402581E
:1045480030540258945402580F00FEFFF8ABFDA7F0
:10455800CDCCCCCC002800F0BC80844690F8340048
:10456800012800F0B88001202DE9F0419CF8354081
:104578008CF83400844208D000224FF400638CF891
:104588003420CCF85430BDE8F0810220DCF800502B
:104598007A4C8CF835000020794ECCF854007948D4
:1045A800854218BFA54200F118000CBF0124002461
:1045B800854208BF44F001041830854208BF44F022
:1045C80001041830854208BF44F0010418308542C0
:1045D80008BF44F0010400F55670854208BF44F056
:1045E80001041830854208BF44F0010418308542A0
:1045F80008BF44F001041830854208BF44F00104A4
:104608001830854208BF44F001041830854208BFBD
:1046180044F001041830854208BF44F00104183002
:10462800854208BF44F00104A0F59560B54218BF63
:104638008542DCF86C600CBF0120002054EA0008B9
:10464800286820F001002860DCF86400DCF8684085
:10465800DCF85870446040D016B1DCE91C044460B2
:10466800DCF85C004FF03F0E00F01F000EFA00F07F
:10467800B860286820F4802028606B60DCF8083077
:10468800402B23D0A960EA602B6823F01E0343F077
:1046980016032B60DCF840301BB12B6843F008038D
:1046A8002B60DCF860301A68D20303D51A6842F42C
:1046B80080721A601EB1336843F4807333602B68CC
:1046C800002043F001032B60BDE8F081AA60E96097
:1046D800DAE7012070470220704716B1DCE91C04B4
:1046E80044602948DFF8A8E0754518BF85420EF1F7
:1046F800140E0CBF01200020754508BF40F00100D2
:104708000EF1140E754508BF40F001000EF1140EAD
:10471800754508BF40F001000EF1140E754508BF3D
:1047280040F001000EF1140E754508BF40F001007D
:1047380010B9164885420ED1DCF85C0000F01F0E57
:10474800012000FA0EF078606B60DCF80830402B2E
:1047580010D0A960EA602B6823F00E0343F00A0327
:104768002B60DCF84030002B9BD02B6843F004030F
:104778002B6096E7AA60E960EDE700BF40000240C1
:104788002800024058000240085402589454025825
:104798001C5402582DE9F04300229C4B83B09C4ED8
:1047A8001D688146019203689A4A846D934218BF36
:1047B800B342276808BF0126216818BF002645D0E4
:1047C80018329548834218BF934200F118000CBF75
:1047D80001220022834208BF42F0010218308342BE
:1047E80008BF42F001021830834208BF42F00102BC
:1047F8001830834208BF42F0010200F55670834228
:1048080008BF42F001021830834208BF42F001029B
:104818001830834208BF42F001021830834208BFB3
:1048280042F001021830834208BF42F001021830FA
:10483800834208BF42F001021830834208BF42F0A9
:1048480001021AB9754A934240F05082D9F85C10B7
:10485800082201F01F0C02FA0CF2174240F088817E
:1048680027FA0CF2D2070CD55A69100609D501228D
:1048780002FA0CF2A260D9F8542042F00202C9F8F8
:1048880054204FF0040E0EFA0CF038425BD0002E84
:104898004FD1634ADFF88081434518BF934208F13E
:1048A80018080CBF01220022434508BF42F001024C
:1048B80008F11808434508BF42F0010208F118083A
:1048C800434508BF42F0010208F11808434508BFF4
:1048D80042F0010208F55678434508BF42F001024C
:1048E80008F11808434508BF42F0010208F118080A
:1048F800434508BF42F0010208F11808434508BFC4
:1049080042F0010208F11808434508BF42F00102CD
:1049180008F11808434508BF42F0010208F11808D9
:10492800434508BF42F001021AB93C4A934240F09D
:1049380019821A68920706D5A060D9F8542042F067
:104948000402C9F85420102202FA0CFC1CEA070FD2
:104958006CD0002E45D1324A2F4EB34218BF934235
:1049680006F118060CBF01220022B34208BF42F02C
:1049780001021836B34208BF42F001021836B342AA
:1049880008BF42F001021836B34208BF42F00102E4
:1049980006F55676B34208BF42F001021836B34214
:1049A80008BF42F001021836B34208BF42F00102C4
:1049B8001836B34208BF42F001021836B34208BFA6
:1049C80042F001021836B34208BF42F0010218361D
:1049D800B34208BF42F001021AB9104A934240F0AC
:1049E800C9811A68100721D5C4F808C01A68560387
:1049F80000F14C811A68D20503D41A6822F0080223
:104A08001A60D9F840308BB10CE000BF30000024A8
:104A1800100002402800024058000240B80402403A
:104A28004000024048469847D9F85C1001F01F0141
:104A380020268E403E4268D0D9F80020A54BA64FCC
:104A4800BA4218BF9A4207F118070CBF0123002386
:104A5800BA4208BF43F001031837BA4208BF43F00F
:104A680001031837BA4208BF43F001031837BA42A6
:104A780008BF43F001031837BA4208BF43F00103E7
:104A88001837BA4208BF43F0010307F55677BA4210
:104A980008BF43F001031837BA4208BF43F00103C7
:104AA8001837BA4208BF43F001031837BA4208BFA3
:104AB80043F001031837BA4208BF43F0010318371F
:104AC800BA4208BF43F001031837BA4208BF43F09F
:104AD80001031BB9814B9A4240F062811368DB06DF
:104AE80013D5A66099F83530042B136800F0AE8012
:104AF80013F4802F136800F0D3801C0340F1DE808C
:104B0800D9F83C300BB148469847D9F85430002BB7
:104B180000F0B980D9F85430D8071FD5D9F800204B
:104B2800042189F83510136823F0010313606C4BD6
:104B3800A3FB0535AD0A02E01368D90704D5019B2C
:104B48000133AB420193F7D9002389F83430136855
:104B5800DB074CBF0323012389F83530D9F84C30E3
:104B6800002B00F09080484603B0BDE8F04318479A
:104B7800186840070AD5186820F004001860A26079
:104B8800D9F8542042F00102C9F8542027FA0CF24F
:104B9800D2077FF576AE534A5348834218BF9342F3
:104BA80000F130000CBF01220022834208BF42F00E
:104BB80001021830834208BF42F0010218308342D4
:104BC80008BF42F001021830834208BF42F00102D8
:104BD80000F55670834208BF42F001021830834244
:104BE80008BF42F001021830834208BF42F00102B8
:104BF8001830834208BF42F001021830834208BFD0
:104C080042F001021830834208BF42F00102183016
:104C1800834208BF42F001021830834208BF42F0C5
:104C28000102002A7FF420AE002E7FF41DAE1A6820
:104C3800042202FA0CF23A4240F09480102202FA5E
:104C48000CFC17EA0C0F3FF4F1AE84E623F01603D0
:104C58001360536923F080035361D9F840309BB344
:104C6800136823F0080313603F230025012203FA89
:104C780001F1D9F85030A16089F8345089F835200D
:104C8800002B7FF470AF03B0BDE8F0831B681803F6
:104C98007FF5B7AED9F84830002B7FF4C3AEC5E630
:104CA80013F480737FF42CAF116821F010011160A8
:104CB800012289F8343089F8352021E7D9F84430C1
:104CC800002B7FF420AF20E7D9F84830002BC7D15C
:104CD800CAE700BF1000024028000240B8040240A2
:104CE800B5814E1B58000240400002404E4A4F4DCD
:104CF800AB4218BF934205F114050CBF01220022F4
:104D0800AB4208BF42F001021435AB4208BF42F083
:104D180001021435AB4208BF42F001021435AB4220
:104D280008BF42F001021435AB4208BF42F001024D
:104D380012B93F4A9342A6D1D9F85C5004261A68A2
:104D480005F01F05AE400E4219D0570717D51004BD
:104D580066604BD5D1034FD4D9F84830002B7FF487
:104D680002AF90E71A68102202FA0CFC17EA0C0F3F
:104D78003FF45CAE1A6852077FF558AE34E6022657
:104D8800AE400E4211D097070FD56660140439D58E
:104D9800D00343D4D9F84430002B7FF4E4AE72E753
:104DA80013689F077FF5B1AE9BE60826AE400E421A
:104DB8003FF469AF11077FF566AF1A68002122F04A
:104DC8000E021A600123D9F84C2003FA05F5656034
:104DD800C9F8543089F8341089F83530002A3FF47E
:104DE80052AF484603B0BDE8F0431047920603D4DB
:104DF8001A6822F004021A60D9F84030002B7FF4B8
:104E0800B2AE40E712F0200208D11968012421F05F
:104E18000A01196089F8342089F83540D9F83C30FE
:104E2800002B7FF4A0AE2EE7085402581C540258F9
:104E380094540258406D70472DE9F04F0D6883B0C7
:104E4800002D00F0D5800023DFF8688201229A4007
:104E580012EA050C00F0C7804E6826F01009B9F177
:104E6800020F40F0C88003F007044FEAD30E4FF05A
:104E78000F0A4FEA840900EB8E0E0AFA09FADEF8E7
:104E8800204024EA0A0A0C6904FA09F406F0030926
:104E980044EA0A04CEF820404FEA430E0324D0F82F
:104EA80000A009FA0EF904FA0EF42AEA040AE44307
:104EB80049EA0A09C0F80090D0F808A0CF6804EAC7
:104EC8000A0A07FA0EF949EA0A09C0F80890C6F36F
:104ED8000019D0F804A009FA03F92AEA020249EAFB
:104EE80002024260C268F70004EA02048A6802FA11
:104EF8000EF242EA0402C26075D5644C23F0030E38
:104F080003F00309D4F8F420C6444FEA890942F0B3
:104F18000202C4F8F420D4F8F42002F0020201924C
:104F2800019A0F22DEF8084002FA09F224EA020286
:104F3800574CA04225D004F58064A0427BD0554C44
:104F4800A0427ED0544CA0426FD0544CA04200F0F6
:104F58008480534CA04200F08680524CA04276D008
:104F6800514CA04200F08580504CA04200F0878050
:104F78004F4CA0420CBF09240A2404FA09F942EA5A
:104F88000902CEF808204FF0B0426FEA0C0EF40385
:104F9800D2F880204FF0B04454BF0EEA02024CEA27
:104FA8000202C4F88020B203D4F884404FF0B04223
:104FB80054BF0EEA04044CEA0404F702C2F8844021
:104FC80014684FF0B04254BF0EEA04044CEA0404DB
:104FD8001460B40252684FF0B04454BF0EEA0202A3
:104FE8004CEA02026260013335FA03F27FF42EAF15
:104FF80003B0BDE8F08F4FEA430E0324D0F800B0A9
:1050080006F0030A04FA0EF409F1FF390AFA0EFA57
:105018002BEA040BB9F1010F6FEA04044AEA0B0A00
:10502800C0F800A03FF65EAF46E7032404FA09F98A
:1050380042EA0902A5E7012404FA09F942EA090249
:105048009FE7022404FA09F942EA090299E70624CB
:1050580004FA09F942EA090293E7042404FA09F96F
:1050680042EA09028DE7052404FA09F942EA09022D
:1050780087E7072404FA09F942EA090281E70824C4
:1050880004FA09F942EA09027BE700BF0044025822
:105098000000025800080258000C0258001002587C
:1050A8000014025800180258001C02580020025828
:1050B8000024025800040058002900F0A8800023AA
:1050C8002DE9F04FDFF8689183B0DFF86881DFF8E9
:1050D80068A1DFF868B14FF0010E0EFA03F212EA88
:1050E800010C6FD023F0030503F003040F2640459D
:1050F8004D444FEAC404AF6806FA04F607EA060707
:10510800019721D0504566D0584567D0434FB842E3
:105118006ED0434FB84270D0424FB84263D0424F2E
:10512800B84256D0414FB84272D0DFF814E170450A
:1051380068D0DFF810E1704514BF4FF00A0E4FF049
:10514800090E0EFA04F400E00024019FA74219D1C9
:10515800AC6824EA06064FF0B044AE60D4F880503C
:1051680025EA0C05C4F88050D4F8845025EA0C05CB
:10517800C4F88450256825EA0C052560656825EA89
:105188000C05656003255C0003F007070F2605FA88
:1051980004F40568BF00254306FA07F70560DD0833
:1051A80000EB85052E6A26EA07062E62856825EA41
:1051B80004058560456825EA02024260C26822EA61
:1051C8000404C460013331FA03F284D103B0BDE8AA
:1051D800F08F4FF0060E0EFA04F4B6E74FF0020E09
:1051E8000EFA04F4B1E74FF0050E0EFA04F4ACE73A
:1051F8004FF0030E0EFA04F4A7E74FF0040E0EFA70
:1052080004F4A2E74FF0080E0EFA04F49DE7704785
:105218004FF0070E0EFA04F497E700BF000C02588F
:10522800001002580014025800180258001C0258B6
:1052380000040058000002580004025800080258F0
:1052480000200258002402580369194214BF0120A3
:105258000020704702B90904816170472DE9F04FB9
:10526800076889B00446384603F08EFF10B109B0CC
:10527800BDE8F08F8246206803F058FF0028F6D07A
:10528800206803F053FF10F0020F206803D0436931
:1052980003F00203436103F049FF10F4002B206878
:1052A80040F0508103F042FF10F4802F206840F056
:1052B800EB8003F03BFF002874DB206803F036FF27
:1052C800000564D4206803F031FF020114D5226878
:1052D800536903F00063536194F8F433002B40F0F2
:1052E80095810121204684F8F413536DC3F3830399
:1052F800C4F8F83300F024FC206803F017FFC30457
:105308007BD4206803F012FF10F4005F20685DD1A1
:1053180003F00CFF10F0100F206812D0836923F0FF
:10532800100383613D6AC5F3434305F00F06022B62
:1053380000F03182062B00F07F81836943F010036F
:10534800836103F0F3FE070700F15781206803F03B
:10535800EDFEC60200F14681206803F0E7FE8502F3
:1053680000F13581206803F0E1FE400000F126815C
:10537800206803F0DBFE41077FF579AF23685D689D
:105388006A0700F129825A682A435A606FE7D7F8FA
:105398000838D90700F11C822068436903F40063C8
:1053A800436190E7D7F8043823F00103C7F80438BD
:1053B80094F8F433012B00F038812046FDF756FEAF
:1053C8002068436903F00043436177E703F0E0FE98
:1053D800206803F0EDFB2568E06001F0E5FC227B26
:1053E8000146284603F058FB2046FDF715FE2068C5
:1053F800436903F4005343618AE7D7F8043810215E
:10540800206807F5006523F001036B6003F0BEFB1D
:105418006068B0B107F510634FF67F3199600AF103
:10542800010A1A682033824522F4001243F8202C1E
:10543800C3F8E811D3F8E02122F40012C3F8E02100
:10544800ECD1EB6943F00113EB61236B002B40F0C7
:10545800E1806A6942F22B0313436B612B6943F0C5
:105468000B032B61D7F8003804F57172217C23F403
:10547800FE632068C7F8003803F0A6FE2068436979
:1054880003F4805343613DE703F05CFE80462068E7
:10549800B8F1000F00F0E580264607F510694FF0D7
:1054A800000BCDE9037A09E05FEA58080BF1010B1C
:1054B80006F11C0609F1200900F0D58018F0010F4B
:1054C800F2D05FFA8BF7394603F04EFEC307054664
:1054D8001FD50BF00F03039901229A40D1F83438F5
:1054E80023EA0203C1F834380123C9F808302369D4
:1054F800012B03D1D6E911231344B364394620465E
:10550800FDF77CFD2369012B03D1BBF1000F00F0EF
:10551800AC81280702D50823C9F80830E90602D566
:105528001023C9F808306A0602D54023C9F80830A4
:10553800AB0702D50223C9F808302D0600F1C68052
:105548002068B1E703F0F6FD05462068002D00F05D
:10555800868007F53066A1464FF0000B049707E0F8
:105568006D080BF1010B06F1200609F11C097DD02D
:10557800EB07F5D55FFA8BF1039103F0EBFD10F023
:10558800010F8046039973D118F0080F40F0F2809C
:10559800206818F0100F01D01023B36018F0200F06
:1055A80005D02169012900F05A812023B36018F43D
:1055B800005FD5D04FF40053B360D1E72046FDF724
:1055C80061FD2068436903F080434361D1E62046CA
:1055D8005FFA8BF1FDF74EFD2068436903F4001371
:1055E8004361C0E620465FFA8BF1FDF747FD20686E
:1055F800436903F480134361AFE62046FDF708FDD5
:105608002068436903F008034361A0E62046FDF7DC
:1056180015FD71E6D5F8843043F00B03C5F88430E6
:105628006B6C43F00B036B641CE70021204684F885
:10563800F41300F085FAC3E6C6EBC606082204F5A3
:105648007171384603F0F0FCC5F30A1304EB8602C7
:105658002068D2F814120B44C2F814326DE6AB4637
:1056680020E6C34625E6DDE9037A22E6049F19E62B
:10567800206801232769B36000F53063012FD0F853
:1056880040E003EB4B139A6800F0C580984FBE4585
:1056980040F0BD80170440F1B6804FF4004218F086
:1056A800080F9A603FF475AF026C986890498A4277
:1056B80000F0978020460392FDF790FC8D4B039AEB
:1056C8009A4200F296800823B36061E7D6E9145342
:1056D800D4F800A0AB4250463FF6E6AE0AF5106299
:1056E800716CCDF81CA002EB4B120592EA1A8A42A3
:1056F80028BF0A4605998969033289B2B1EB920F2E
:10570800C0F0A980CDF81890C146A046059C1AE0C3
:10571800736C3A46B16C50469D4228BF1D4698F8B6
:1057280010300093ABB203F069FCB36CA1692B4451
:1057380089B2B364736D2B440335B1EB950F736570
:10574800C0F08180356D9D42A5EB0305E0D8444645
:10575800C846DDF81890D4F800A0079B01225046EF
:1057680003F500610BF00F039A404B6B23EA020329
:105778004B6399E62268216902F53063126C0129AE
:1057880003EB4B13986891D15A498A4229D820468D
:10579800FDF724FC97E747F6F0731D423FF4CDADC3
:1057A800C6EBC606C5F30A12384604EB860615464C
:1057B800D6F8081203F038FCD6F8083220682B44D3
:1057C800C6F80832D6F814322B44C6F81432B4E5B9
:1057D8002046FDF733FCDFE52046FDF757FC23683C
:1057E800D1E5020402D54FF400429A602046FDF745
:1057F800F5FB216901297FF466AF04F57172206811
:1058080003F0E2FC5FE7900601D520229A6020466B
:10581800FDF7EAFBB8E6170732D536498E4504D9B5
:10582800120402D54FF400429A6020460393FDF714
:10583800D5FB04F571720121206803F0C5FC08222C
:10584800039B9A60A0E64446356DC846DDF818907B
:10585800D4F800A050469D423FF626AE7DE704F5F9
:10586800717203F0B1FC20689FE6236D002B7FF472
:1058780050AE04F571720121206803F0A5FC48E6DA
:10588800970608D520229A6018F0080F3FF481AED9
:10589800026C986878E712F0280FF5D1154FBE45CD
:1058A80005D9120403D54FF400429A60ECE71B694E
:1058B8002046D9F80422C3F31203D31AC9F81432C4
:1058C800D9F808321344C9F80832FDF78DFBBBF14B
:1058D800000F7FF459AED4F81032002B7FF454AE89
:1058E80004F571720121206803F06EFC4CE600BFDC
:1058F8000A31544F0A30544F90F8BC23012A0ED075
:10590800012210B50446006884F8381084F8BC23D6
:1059180003F0FAFB0023184684F8BC3310BD0220BC
:10592800704700BF10B501F00F0E0906044627D4D2
:105938004FF01C0C0CFB0E0C0CF5FE71CEEBCE0CD4
:1059480000EB8C0C00208CF8FD018A604A7881F805
:1059580000E0CB700AB1A1F806E0022B01D10023C8
:105968000B7194F8BC33012B18D00123206884F8FC
:10597800BC3303F029F90023184684F8BC3310BD62
:105988001C204FF0010C00FB0E4000F13C01CEEB57
:10599800CE0004EB800080F83DC0D6E7022010BDA1
:1059A80010B501F00F041C21C4EBC40C01FB040169
:1059B80000EB8C0C01F5FE71CCF810320023CCF80A
:1059C80008228CF8FC41CCF814328CF8FD310369BC
:1059D8000068012B08BFCCF80C22DAB21CB903F01E
:1059E80053FA002010BD03F037F9002010BD00BFA6
:1059F80010B501F00F041C21C4EBC40C01FB040119
:105A080000EB8C0C3C31CCF850300023CCF848200B
:105A1800CCF8543001238CF83C408CF83D300369B5
:105A28000068012B08BFCCF84C20DAB21CB903F08F
:105A38002BFA002010BD03F00FF9002010BD00BFA5
:105A480038B5436801F00F059D4234D80B0604466B
:105A58001DD41C22C1EBC10302FB010100EB83032F
:105A6800002201F5FE7183F8FD2101230D708B7072
:105A780094F8BC239A421CD0206884F8BC3303F005
:105A8800E3FAD5B10023184684F8BC3338BD1C218D
:105A9800C5EBC503012201FB050100EB83033C3183
:105AA80083F83D2001230D708B7094F8BC239A4233
:105AB800E2D1022038BD012038BD04F57172217C85
:105AC800206803F081FBDDE7426838B501F00F0379
